{
  "contractName": "Faucet",
  "abi": [
    {
      "inputs": [],
      "name": "numOfFunders",
      "outputs": [
        {
          "internalType": "uint256",
          "name": "",
          "type": "uint256"
        }
      ],
      "stateMutability": "view",
      "type": "function",
      "constant": true
    },
    {
      "stateMutability": "payable",
      "type": "receive",
      "payable": true
    },
    {
      "inputs": [],
      "name": "addFunds",
      "outputs": [],
      "stateMutability": "payable",
      "type": "function",
      "payable": true
    },
    {
      "inputs": [],
      "name": "getAllFunders",
      "outputs": [
        {
          "internalType": "address[]",
          "name": "",
          "type": "address[]"
        }
      ],
      "stateMutability": "view",
      "type": "function",
      "constant": true
    },
    {
      "inputs": [
        {
          "internalType": "uint8",
          "name": "index",
          "type": "uint8"
        }
      ],
      "name": "getFunderAtIndex",
      "outputs": [
        {
          "internalType": "address",
          "name": "",
          "type": "address"
        }
      ],
      "stateMutability": "view",
      "type": "function",
      "constant": true
    }
  ],
  "bytecode": "0x608060405234801561001057600080fd5b50610566806100206000396000f3fe6080604052600436106100435760003560e01c80630a93cf331461004f5780636fbbb55d1461008c578063a26759cb146100b7578063af7f2c9b146100c15761004a565b3661004a57005b600080fd5b34801561005b57600080fd5b50610076600480360381019061007191906102fb565b6100ec565b60405161008391906103c7565b60405180910390f35b34801561009857600080fd5b506100a161012c565b6040516100ae91906103e2565b60405180910390f35b6100bf610271565b005b3480156100cd57600080fd5b506100d66102e0565b6040516100e39190610404565b60405180910390f35b6000600160008360ff16815260200190815260200160002060009054906101000a900473ffffffffffffffffffffffffffffffffffffffff169050919050565b60606000805467ffffffffffffffff811115610171577f4e487b7100000000000000000000000000000000000000000000000000000000600052604160045260246000fd5b60405190808252806020026020018201604052801561019f5781602001602082028036833780820191505090505b50905060005b600054811015610269576001600082815260200190815260200160002060009054906101000a900473ffffffffffffffffffffffffffffffffffffffff1682828151811061021c577f4e487b7100000000000000000000000000000000000000000000000000000000600052603260045260246000fd5b602002602001019073ffffffffffffffffffffffffffffffffffffffff16908173ffffffffffffffffffffffffffffffffffffffff16815250508080610261906104a1565b9150506101a5565b508091505090565b6000806000815480929190610285906104a1565b919050559050336001600083815260200190815260200160002060006101000a81548173ffffffffffffffffffffffffffffffffffffffff021916908373ffffffffffffffffffffffffffffffffffffffff16021790555050565b60005481565b6000813590506102f581610519565b92915050565b60006020828403121561030d57600080fd5b600061031b848285016102e6565b91505092915050565b6000610330838361033c565b60208301905092915050565b61034581610458565b82525050565b61035481610458565b82525050565b60006103658261042f565b61036f8185610447565b935061037a8361041f565b8060005b838110156103ab5781516103928882610324565b975061039d8361043a565b92505060018101905061037e565b5085935050505092915050565b6103c18161048a565b82525050565b60006020820190506103dc600083018461034b565b92915050565b600060208201905081810360008301526103fc818461035a565b905092915050565b600060208201905061041960008301846103b8565b92915050565b6000819050602082019050919050565b600081519050919050565b6000602082019050919050565b600082825260208201905092915050565b60006104638261046a565b9050919050565b600073ffffffffffffffffffffffffffffffffffffffff82169050919050565b6000819050919050565b600060ff82169050919050565b60006104ac8261048a565b91507fffffffffffffffffffffffffffffffffffffffffffffffffffffffffffffffff8214156104df576104de6104ea565b5b600182019050919050565b7f4e487b7100000000000000000000000000000000000000000000000000000000600052601160045260246000fd5b61052281610494565b811461052d57600080fd5b5056fea26469706673582212201bdb66c2824c4d61a77b5ae1de44cc1c4216ac6887d9e974915873f6ff1499fa64736f6c63430008040033",
  "immutableReferences": {},
  "source": "// SPDX-Licence-Identifier: MIT\npragma solidity >=0.4.22 <0.9.0;\n\ncontract Faucet {\n    \n    uint public numOfFunders;\n    mapping(uint256 => address) private funders;\n\n    receive() external payable {}\n\n    function addFunds() external payable {\n        uint index = numOfFunders++;\n        funders[index] = msg.sender;\n    }\n\n\n    function getAllFunders() external view returns(address[] memory) {\n        address[] memory _funders = new address[](numOfFunders);\n        for (uint i = 0; i < numOfFunders; i++) {\n            _funders[i] = funders[i];\n        }\n        return _funders;\n    }\n\n    function getFunderAtIndex(uint8 index) public view returns (address) {\n        return funders[index];\n    }\n}\n\n/*\n    const instance = await Faucet.deployed();\n    instance.addFunds({from: accounts[0], value: \"2000000000000000000\"});\n    instance.addFunds({from: accounts[1], value: \"2000000000000000000\"});\n    instance.getFunderAtIndex(0);\n*/\n",
  "sourcePath": "/Users/arturofiliovilla/Documents/solidity/faucet/solidity/contracts/FaucetContract.sol",
  "compiler": {
    "name": "solc",
    "version": "0.8.4+commit.c7e474f2.Emscripten.clang"
  },
  "schemaVersion": "3.4.7",
  "updatedAt": "2022-04-27T04:38:37.177Z",
  "networkType": "ethereum",
  "devdoc": {
    "kind": "dev",
    "methods": {},
    "version": 1
  },
  "userdoc": {
    "kind": "user",
    "methods": {},
    "version": 1
  }
}