{
  "contractName": "Faucet",
  "abi": [
    {
      "inputs": [],
      "name": "numOfFunders",
      "outputs": [
        {
          "internalType": "uint256",
          "name": "",
          "type": "uint256"
        }
      ],
      "stateMutability": "view",
      "type": "function",
      "constant": true
    },
    {
      "stateMutability": "payable",
      "type": "receive",
      "payable": true
    },
    {
      "inputs": [],
      "name": "addFunds",
      "outputs": [],
      "stateMutability": "payable",
      "type": "function",
      "payable": true
    },
    {
      "inputs": [],
      "name": "getAllFunders",
      "outputs": [
        {
          "internalType": "address[]",
          "name": "",
          "type": "address[]"
        }
      ],
      "stateMutability": "view",
      "type": "function",
      "constant": true
    },
    {
      "inputs": [
        {
          "internalType": "uint8",
          "name": "index",
          "type": "uint8"
        }
      ],
      "name": "getFunderAtIndex",
      "outputs": [
        {
          "internalType": "address",
          "name": "",
          "type": "address"
        }
      ],
      "stateMutability": "view",
      "type": "function",
      "constant": true
    }
  ],
  "bytecode": "0x608060405234801561001057600080fd5b50610615806100206000396000f3fe6080604052600436106100435760003560e01c80630a93cf331461004f5780636fbbb55d1461008c578063a26759cb146100b7578063af7f2c9b146100c15761004a565b3661004a57005b600080fd5b34801561005b57600080fd5b50610076600480360381019061007191906103aa565b6100ec565b6040516100839190610476565b60405180910390f35b34801561009857600080fd5b506100a161012c565b6040516100ae9190610491565b60405180910390f35b6100bf610271565b005b3480156100cd57600080fd5b506100d661038f565b6040516100e391906104b3565b60405180910390f35b6000600260008360ff16815260200190815260200160002060009054906101000a900473ffffffffffffffffffffffffffffffffffffffff169050919050565b60606000805467ffffffffffffffff811115610171577f4e487b7100000000000000000000000000000000000000000000000000000000600052604160045260246000fd5b60405190808252806020026020018201604052801561019f5781602001602082028036833780820191505090505b50905060005b600054811015610269576002600082815260200190815260200160002060009054906101000a900473ffffffffffffffffffffffffffffffffffffffff1682828151811061021c577f4e487b7100000000000000000000000000000000000000000000000000000000600052603260045260246000fd5b602002602001019073ffffffffffffffffffffffffffffffffffffffff16908173ffffffffffffffffffffffffffffffffffffffff1681525050808061026190610550565b9150506101a5565b508091505090565b6000339050600160008273ffffffffffffffffffffffffffffffffffffffff1673ffffffffffffffffffffffffffffffffffffffff16815260200190815260200160002060009054906101000a900460ff1661038c5760008060008154809291906102db90610550565b91905055905060018060008473ffffffffffffffffffffffffffffffffffffffff1673ffffffffffffffffffffffffffffffffffffffff16815260200190815260200160002060006101000a81548160ff021916908315150217905550816002600083815260200190815260200160002060006101000a81548173ffffffffffffffffffffffffffffffffffffffff021916908373ffffffffffffffffffffffffffffffffffffffff160217905550505b50565b60005481565b6000813590506103a4816105c8565b92915050565b6000602082840312156103bc57600080fd5b60006103ca84828501610395565b91505092915050565b60006103df83836103eb565b60208301905092915050565b6103f481610507565b82525050565b61040381610507565b82525050565b6000610414826104de565b61041e81856104f6565b9350610429836104ce565b8060005b8381101561045a57815161044188826103d3565b975061044c836104e9565b92505060018101905061042d565b5085935050505092915050565b61047081610539565b82525050565b600060208201905061048b60008301846103fa565b92915050565b600060208201905081810360008301526104ab8184610409565b905092915050565b60006020820190506104c86000830184610467565b92915050565b6000819050602082019050919050565b600081519050919050565b6000602082019050919050565b600082825260208201905092915050565b600061051282610519565b9050919050565b600073ffffffffffffffffffffffffffffffffffffffff82169050919050565b6000819050919050565b600060ff82169050919050565b600061055b82610539565b91507fffffffffffffffffffffffffffffffffffffffffffffffffffffffffffffffff82141561058e5761058d610599565b5b600182019050919050565b7f4e487b7100000000000000000000000000000000000000000000000000000000600052601160045260246000fd5b6105d181610543565b81146105dc57600080fd5b5056fea26469706673582212204c0de85ddb826382573fa5366ff3310d8da3f0ae21854eb988da05b19c57bdbb64736f6c63430008040033",
  "immutableReferences": {},
  "source": "// SPDX-Licence-Identifier: MIT\npragma solidity >=0.4.22 <0.9.0;\n\ncontract Faucet {\n    \n    uint public numOfFunders;\n    mapping(address => bool) private funders;\n    mapping(uint => address) private lutFunders;\n\n    receive() external payable {}\n\n    function addFunds() external payable {\n        address funder = msg.sender;\n        if (!funders[funder]) {\n            uint index = numOfFunders++;\n            funders[funder] = true;\n            lutFunders[index] = funder;\n        }\n    }\n\n    function getAllFunders() external view returns(address[] memory) {\n        address[] memory _funders = new address[](numOfFunders);\n        for (uint i = 0; i < numOfFunders; i++) {\n            _funders[i] = lutFunders[i];\n        }\n        return _funders;\n    }\n\n    function getFunderAtIndex(uint8 index) public view returns (address) {\n        return lutFunders[index];\n    }\n}\n\n/*\n    truffle migrate --reset\n    truffle console\n    const instance = await Faucet.deployed();\n        \n    instance.addFunds({from: accounts[1], value: \"2000000000000000000\"});\n    instance.getFunderAtIndex(0);\n    instance.getAllFunders();\n*/\n",
  "sourcePath": "/Users/arturofiliovilla/Documents/solidity/faucet/solidity/contracts/FaucetContract.sol",
  "compiler": {
    "name": "solc",
    "version": "0.8.4+commit.c7e474f2.Emscripten.clang"
  },
  "schemaVersion": "3.4.7",
  "updatedAt": "2022-04-27T05:29:18.173Z",
  "networkType": "ethereum",
  "devdoc": {
    "kind": "dev",
    "methods": {},
    "version": 1
  },
  "userdoc": {
    "kind": "user",
    "methods": {},
    "version": 1
  }
}